:020000040800F2
:10000000A00A002095170008E3010008E501000898
:10001000E9010008ED010008F101000800000000FE
:10002000000000000000000000000000F5010008D2
:10003000F701000800000000F9010008FB010008BA
:10004000AF170008AF170008AF170008AF17000878
:10005000AF170008AF170008AF170008AF17000868
:10006000AF170008AF170008AF170008AF17000858
:10007000AF170008AF170008AF170008AF17000848
:10008000AF170008AF170008AF170008AF17000838
:10009000AF170008AF170008AF170008AF17000828
:1000A000AF170008AF170008AF170008AF17000818
:1000B000AF170008AF170008AF170008AF17000808
:1000C000AF170008AF170008AF170008AF170008F8
:1000D000AF17000895100008AF170008AF17000809
:1000E000AF170008AF170008AF170008AF170008D8
:1000F000AF170008AF170008AF170008AF170008C8
:10010000AF170008AF170008AF170008AF170008B7
:10011000AF170008AF170008AF170008AF170008A7
:10012000AF170008AF170008AF170008AF17000897
:1001300000F002F800F03AF80AA090E8000C8244BF
:100140008344AAF10107DA4501D100F02FF8AFF29C
:10015000090EBAE80F0013F0010F18BFFB1A43F0A5
:10016000010318476C1800008C180000103A24BFD7
:1001700078C878C1FAD8520724BF30C830C144BF0C
:1001800004680C607047000000230024002500264E
:10019000103A28BF78C1FBD8520728BF30C148BFEA
:1001A0000B6070471FB51FBD10B510BD01F0D5FB2A
:1001B0001146FFF7F7FF00F008F801F0F3FB03B476
:1001C000FFF7F2FF03BC01F0FBFB01F079FA4FF4FB
:1001D000A06000F003F901F059FA01E001F064FABF
:1001E000FCE7704700BFFEE700BFFEE700BFFEE789
:1001F00000BFFEE770477047704770470CB500209E
:10020000019000906C48006840F480306A490860B2
:1002100000BF6948006800F4003000900198401C5D
:100220000190009818B90198B0F5A06FF1D162481B
:10023000006800F4003010B10120009001E00020BF
:1002400000900098012843D15C48006840F01000FD
:100250005A4908600846006820F003000860084614
:10026000006840F002000860534840685249486006
:100270000846406848600846406840F4806048602E
:100280000846406820F47C1048600846406840F406
:10029000E81048600846006840F08070086000BFC1
:1002A0004548006800F000700028F9D042484068D6
:1002B00020F00300404948600846406840F00200D2
:1002C000486000BF3C48406800F00C000828F9D1A5
:1002D0000CBD10B5FFF792FF10BD10B53648006891
:1002E00040F001003449086008464068344908403D
:1002F0003149486008460068324908402E49086084
:100300000846006820F4802008600846406820F411
:10031000FE0048604FF41F008860FFF7DAFF4FF0DF
:1003200000602949086010BD10B50021002000229E
:10033000214B5B6803F00C0121B1042906D0082988
:1003400028D107E0214B224C236027E01F4B204C93
:10035000236023E0184B5B6803F47010164B5B6856
:1003600003F48032022303EB904022B9194B43433C
:10037000174C23600DE0104B5B6803F4003323B18E
:10038000144B4343124C236003E0104B4343104C87
:10039000236003E00D4B0E4C236000BF00BF064BF3
:1003A0005B68C3F303130C4CE15C094B1B68CB4047
:1003B000074C236010BD00000010024000200240E6
:1003C0000000FFF8FFFFF6FE08ED00E000127A00E3
:1003D0000000002000093D000400002031490143D5
:1003E000314A1160704770B5002100230F22C47894
:1003F00004B32D4C246804F4E064C4F5E064210ADD
:10040000C1F10403CA40447804FA03F1847814402B
:1004100021430901254C0678A155047804F01F05F5
:100420000124AC4005786D11AD0005F1E025C5F85B
:10043000004109E0047804F01F050124AC401C4D84
:100440000678761145F8264070BD1A4A0A400243E4
:10045000154B1B1F1A60704739B1134A121D1268E1
:100460000243114B1B1D1A6006E00F4A121D126851
:1004700082430D4B1B1D1A607047042808D14FF0B2
:10048000E021096941F004014FF0E022116107E029
:100490004FF0E021096921F004014FF0E0221161E1
:1004A000704700000000FA050CED00E000E400E0F9
:1004B00080E100E080FFFF1F10B50446CC48844275
:1004C00008D10121042000F02DFB0021042000F0C0
:1004D00029FB46E0C748844208D10121082000F0EA
:1004E00021FB0021082000F01DFB3AE0C2488442B5
:1004F00008D10121102000F015FB0021102000F090
:1005000011FB2EE0BD48844208D10121202000F0DB
:1005100009FB0021202000F005FB22E0B8488442BE
:1005200008D10121402000F0FDFA0021402000F018
:10053000F9FA16E0B348844208D10121802000F086
:10054000F1FA0021802000F0EDFA0AE0AE48844282
:1005500007D10121801500F0E5FA0021A01500F077
:10056000E1FA10BD10B50121084600F0DBFA0021C8
:10057000012000F0D7FA10BD2DE9F0410246002518
:100580000026002000230024002791F803C00CF06F
:100590000F0591F803C00CF0100CBCF1000F03D054
:1005A00091F802C04CEA050591F800C0BCF1000FBB
:1005B00031D0146800202BE04FF0010C0CFA00F34E
:1005C000B1F800C00CEA03069E4220D183004FF030
:1005D0000F0C0CFA03F7BC4305FA03FC4CEA0404C5
:1005E00091F803C0BCF1280F06D14FF0010C0CFAB2
:1005F00000FCC2F814C00AE091F803C0BCF1480F37
:1006000005D14FF0010C0CFA00FCC2F810C0401CE0
:100610000828D1D31460B1F800C0BCF1FF0F34DD5D
:10062000546800202EE000F1080C4FF0010808FA91
:100630000CF3B1F800C00CEA03069E4221D18300FE
:100640004FF00F0C0CFA03F7BC4305FA03FC4CEA1D
:10065000040491F803C0BCF1280F05D100F1080C87
:1006600008FA0CF8C2F8148091F803C0BCF1480FE6
:1006700007D100F1080C4FF0010808FA0CF8C2F895
:100680001080401C0828CED35460BDE8F0814FF69E
:10069000FF710180022181700421C1707047024600
:1006A000002093680B400BB1012000E00020704750
:1006B0000146886880B2704702460020D3680B402C
:1006C0000BB1012000E0002070470146C86880B2ED
:1006D000704701617047416170470AB1016100E0F4
:1006E00041617047C16070474FF480320A438261B4
:1006F0008161826182698269704702460020434BB2
:1007000018684FF68073184040EA021008433F4BC8
:10071000186070473E49C8617047F0B50A4600232B
:1007200000240021002500F00046B6F1004F02D160
:10073000364EF16901E0354E7168C0F3034583B26E
:1007400000F44016B6F5401F08D121F070612F4E1D
:10075000766826F070662D4F7E6012E000F48016F9
:10076000B6F5801F06D1032606FA05F4A14341F031
:10077000706106E0460D360103FA06F6B14341F01A
:10078000706122B1460D360103FA06F6314300F0DE
:100790000046B6F1004F02D11C4EF16101E01B4E44
:1007A0007160F0BD30B500228B071C0F0F2303FAD8
:1007B00004F2164B08338C1053F824309343134C37
:1007C00008348D1044F8253023468C1053F824301B
:1007D0008C07240F00FA04F423430C4C08348D10CA
:1007E00044F8253030BD0A49DC310860704700000C
:1007F00000080140000C01400010014000140140BD
:1008000000180140001C0140002001400000014090
:1008100000002042DF48006840F00100DD49086028
:1008200008464068DC490840DA49486008460068E4
:10083000DA490840D74908600846006820F480205B
:1008400008600846406820F4FE0048604FF41F002E
:1008500088607047CF49096821F48031CD4A116022
:100860001146096821F480211160B0F5803F03D062
:10087000B0F5802F0ED106E0C649096841F48031F9
:10088000C44A116007E0C349096841F4A021C14A84
:10089000116000E000BF00BF704710B501460022A4
:1008A000002300204A11012A02D1BA4C236806E035
:1008B000022A02D1B74C236A01E0B64C636A01F008
:1008C0001F02012494401C400CB1012000E00020D4
:1008D00010BD38B5002000900024002500BF312055
:1008E000FFF7DBFF05460098401C00900098B0F52C
:1008F000A06F01D0002DF2D03120FFF7CEFF08B15C
:10090000012400E00024204638BD01460020A14A11
:10091000106820F0F80040EAC10010607047A0495C
:1009200008607047024600209A4B586820F47C10FB
:1009300042EA01031843974B58607047984908668C
:10094000704701460020934A506820F00300084396
:10095000506070478F48406800F00C0070470146B7
:1009600000208C4A506820F0F00008435060704727
:1009700001460020874A506820F4E0600843506038
:10098000704701460020834A506820F4605040EAD6
:10099000C1005060704729B17E4A527A02437D4BB4
:1009A0005A7204E07B4A527A82437A4B5A727047F9
:1009B0007B49D8310860704701460020754A50686D
:1009C00020F440400843506070470021714A2032B3
:1009D0001170704A82F82010012802D004280AD130
:1009E00004E001216B4A2032117005E00521694ABB
:1009F0002032117000E000BF00BF704769490860F5
:100A000070476449096A0143624A11627047654947
:100A100044390860704730B50021002200240023CB
:100A20005C4D6D6805F00C0121B1042905D0082941
:100A300023D105E05C4D056022E05B4D05601FE0C1
:100A4000544D6D6805F47012524D6D6805F4803494
:100A5000022505EB92421CB9544D554305600BE04D
:100A60004C4D6D6805F400351DB1504D5543056082
:100A700002E04D4D5543056002E04B4D056000BF5F
:100A800000BF444D6D6805F0F0010909484D6B5CED
:100A90000568DD4045603F4D6D6805F4E061090A79
:100AA000434D6B5C4568DD4085603A4D6D6805F4EB
:100AB0006051C90A3E4D6B5C4568DD40C560354DEF
:100AC0006D6805F44041890B3A4D6B5CC568B5FB18
:100AD000F3F5056130BD29B12E4A526902432D4B11
:100AE0005A6104E02B4A526982432A4B5A6170478B
:100AF00029B1284A92690243264B9A6104E0254AAB
:100B000092698243234B9A61704729B1214AD26985
:100B10000243204BDA6104E01E4AD26982431D4B36
:100B2000DA61704729B11B4AD2680243194BDA6077
:100B300004E0184AD2688243164BDA60704729B144
:100B4000144A12690243134B1A6104E0114A1269F4
:100B50008243104B1A617047124940390860704750
:100B60000F49C86470470B49C87170470948406A0B
:100B700040F0807007494862704701460020054AEE
:100B800092680A400AB1012000E000207047014944
:100B900088727047001002400000FFF8FFFFF6FE69
:100BA000000042428004424200127A0000093D00E7
:100BB000140000202400002010B50446FB488442A5
:100BC00009D101218803FFF7ADFF00214FF48040D8
:100BD000FFF7A8FF32E0F648844209D1012148041A
:100BE000FFF7ADFF00214FF40030FFF7A8FF25E02D
:100BF000F048844209D101218804FFF7A0FF0021B9
:100C00004FF48020FFF79BFF18E0EB48844209D1A6
:100C10000121C804FFF793FF00214FF40020FFF7E4
:100C20008EFF0BE0E548844208D101210805FFF75B
:100C300086FF00214FF48010FFF781FF10BD2DE9E2
:100C4000F04786B005460E460024A24600BFA146E6
:100C50000027B08900B100BF2F462C8A4CF6FF70E8
:100C60000440F08804432C82AC894EF6F310044013
:100C7000B08831890843718908430443AC81AC8A48
:100C80004FF6FF400440B0890443AC8201A8FFF74F
:100C9000C2FEC648874202D1DDF810A001E0DDF8AF
:100CA0000CA0A88900F4004040B10AEBCA0000EB98
:100CB0000A1031684900B0FBF1F807E00AEBCA00FE
:100CC00000EB0A1031688900B0FBF1F86420B8FB32
:100CD000F0F004012009642101FB1089A88900F4C7
:100CE000004040B1322000EBC900B0FBF1F000F051
:100CF0000700044308E0322000EB09106421B0FB38
:100D0000F1F000F00F0004432C8106B0BDE8F0873D
:100D10004FF41651016000218180C18001810C21B6
:100D2000418100218181704710B502460020108A60
:100D30004FF2FF0318400B884C8823438C882343D1
:100D4000CC8823431843108210BD002101804180CC
:100D50008180C180704721B1828942F40052828132
:100D600004E082894DF6FF731A4082817047F0B526
:100D70000346002400260025002040F66A17B942E9
:100D800000D100BF1846C1F3421401F01F0601272D
:100D900007FA06F5012C01D10C3004E0022C01D138
:100DA000103000E014301AB107682F43076002E0EA
:100DB0000768AF430760F0BD1AB1838A0B43838293
:100DC00002E0838A8B4383827047028A4FF6F07376
:100DD0001A400282028A0A430282704782894FF2D5
:100DE000FF731A40828182890A438281704721B150
:100DF000828942F00202828104E082894FF6FD730B
:100E00001A4082817047028A4FF6DF731A400282CD
:100E1000028A0A430282704721B1028A42F4804268
:100E2000028204E0028A4BF6FF731A400282704786
:100E3000C1F308028280704701468888C0F3080029
:100E40007047818941F0010181817047028BD2B2E4
:100E50000283028B42EA012202837047028B02F472
:100E60007F420283028B0A430283704721B1828A48
:100E700042F02002828204E0828A4FF6DF731A4039
:100E80008282704721B1828A42F01002828204E09D
:100E9000828A4FF6EF731A408282704721B1828AAC
:100EA00042F00802828204E0828A4FF6F7731A4009
:100EB0008282704721B1828942F40042828103E03C
:100EC0008289C2F30E028281704721B1828A42F484
:100ED0000062828204E0828A4FF2FF731A408282AB
:100EE0007047828A4FF6FB731A408282828A0A43D5
:100EF0008282704721B1828A42F00202828204E03B
:100F0000828A4FF6FD731A408282704702460020A3
:100F1000B1F5007F00D100BF13880B400BB1012059
:100F200000E00020704701F40072B2F5007F00D1AC
:100F300000BFCA430280704770B5024600240023F8
:100F40000025002040F66A16B14200D100BFC1F36F
:100F5000421501F01F03012606FA03F3012D02D109
:100F60009689334006E0022D02D1168A334001E013
:100F7000968A33400C12012606FA04F4168834408F
:100F800013B10CB1012000E0002070BD10B50022AB
:100F9000002340F66A14A14200D100BF0A120124C6
:100FA0009440A3B2DC43048010BD0000003801402F
:100FB0000044004000480040004C00400050004009
:100FC00070B504460D46E1B25A48FFF731FF00BF45
:100FD00080215848FFF79AFF0028F9D0204670BDBD
:100FE00010B5044600BF20215248FFF78FFF0028AC
:100FF000F9D05048FFF720FF10BD00B587B00121A0
:1010000044F20400FFF774FD4FF40070ADF81800CF
:1010100003208DF81A0018208DF81B0006A94648F9
:10102000FFF7AAFA4FF48060ADF8180004208DF89D
:101030001B0006A94048FFF79FFA25208DF8040001
:1010400003208DF805008DF8060001208DF80700BB
:1010500001A8FFF7C8F94FF4E13002900020ADF885
:101060000C00ADF80E00ADF81000ADF814000C2027
:10107000ADF8120002A92F48FFF7E1FD012240F26E
:1010800025512C48FFF773FE01212A48FFF763FE24
:1010900007B000BD10B5002440F225512548FFF7E8
:1010A0004BFF00283BD02348FFF7C6FEC4B22348BD
:1010B0000078C8B121484078012830D01F48C07856
:1010C0001E498988884209DA1C48C178801D445429
:1010D000801FC078401C1949C87020E001201749C2
:1010E00048700020C8701AE01448807850B94FF456
:1010F0007F4000EA04201149888008468078401C1F
:1011000088700CE00D488078012808D10B48808851
:1011100020430A498880012008700020887010BD93
:1011200010B54FF40371054800F0BBFBFFF765FFF6
:1011300010BD000000380140000801402C000020D4
:101140001F49C1F80802704710B51D4840780128B2
:1011500011D11B48007801280DD11948D0F8080298
:1011600028B117488188D0F80822801D90470020B8
:1011700013494870087010BD10B504462146114847
:10118000FFF756FE10BD70B504460D460CE0207802
:10119000FFF7F2FF641C00BF40210A48FFF7B6FECC
:1011A0000128F9D1681E85B2002DF0DC70BD10B5A4
:1011B000FFF7B6FF10BD10B5FFF7C6FF10BD00006A
:1011C0002C0000200038014008B501210820FFF75D
:1011D0008FFCC020ADF8000010208DF80300032024
:1011E0008DF8020069469248FFF7C6F9C021904881
:1011F000FFF76FFA08BD10B58D48006820F0704009
:101200008B4908600846006840F0405008600120A3
:10121000884908608849C1F89801042000F069FAFB
:10122000002084490860042000F063FA002082490D
:10123000C1F8980110BD10B57D48006820F07040DD
:101240007B4908600846006840F040500860002074
:101250007849091F08607849C1F89C01042000F012
:1012600048FA01207349091F08607349C1F89C01BD
:10127000042000F03EFA10BD10B500206D49091F92
:1012800008606B48006820F07040694908600846B3
:10129000006840F04050086000206749C1F89C0198
:1012A000022000F026FA01206249091F086002208E
:1012B00000F01FFA00206049C1F8980110BD10B578
:1012C00000205C49091F08605948006820F0704000
:1012D000574908600846006840F040500860012007
:1012E0005549C1F89C01022000F003FA0120514940
:1012F000091F0860022000F0FCF900204E49C1F8E7
:10130000980110BD10B500244948006820F07040D5
:10131000474908600846006840F000400860012026
:101320004449086000F0E5F901204349C1F89801FB
:1013300000F0DFF907E0601CC4B2FA2C03DDFFF710
:101340007AFF012010BD3B48803800680028F2D1A8
:101350003849091F086000BFF4E770B504463448F7
:10136000006820F07040324908600846006840F08C
:101370004050086000202F49091F086000251DE02B
:10138000E00918B101202B49086002E0002029493A
:1013900008606006040E022000F0ABF90120254928
:1013A000091F0860022000F0A4F900202249C1F8BA
:1013B0009801022000F09DF9681CC5B2082DDFDB02
:1013C00070BD70B5054600241948006820F07040D3
:1013D000174908600846006840F000400860002691
:1013E00017E000201349091F0860022000F081F96E
:1013F00001201149C1F898016006040E0D4880389B
:10140000006808B1601CC4B2012000F072F9701CC1
:10141000C6B2082EE5DB15B9FFF751FF01E0FFF773
:101420002BFF204670BD10B5FFF7CEFE10BD0000AB
:10143000000C01409C8121420080214210B5FFF741
:10144000F2FF10BD70B505460C460026FFF7D3FE2F
:10145000A020FFF782FFFFF755FF2846FFF77DFF2B
:10146000FFF750FF2046FFF778FFFFF74BFFFFF72E
:10147000C2FEA120FFF771FFFFF744FF0020FFF736
:10148000A0FF0646FFF7D7FE304670BD70B5064692
:101490000C461546FFF7AFFEA020FFF75EFFFFF7F3
:1014A00031FF3046FFF759FFFFF72CFF2046FFF7CB
:1014B00054FFFFF727FF2846FFF74FFFFFF722FFF4
:1014C000FFF7B9FE0A2000F038F970BD70472DE92A
:1014D000F04180460E4615461C460027002C0EDDC6
:1014E00009E031464046FFF7ADFF2870701CC6B2D8
:1014F0006D1C601E84B2002CF3DC07B9012738464E
:10150000BDE8F0812DE9F04107460E4614461D4620
:1015100009E0227831463846FFF7B8FF701CC6B2A2
:10152000641C681E85B2002DF3DCBDE8F08100006C
:1015300010B50246002304E012F8014B2344481E74
:10154000C1B20029F8DCD8B210BD70B504460D4612
:10155000681EC1B22046FFF7EBFF57494871681E6D
:10156000215C55484079814213D153480078E0B955
:1015700020785149487061784F48C170A178017155
:101580006A1EE11C801D00F025F901204A490870FF
:101590000BE0012148488170022047490870087813
:1015A0000121FFF7C5FF4449487170BD10B542489D
:1015B0000078012820D14048407850B93E4803794E
:1015C000C178821D0020FFF79DFF00203A49087076
:1015D00012E03948407801280ED137480379C178A4
:1015E000821D0020FFF773FF012805D1FF2132483B
:1015F000817002203049087010BD00B5ADF5017D45
:101600002D48007802283ED12B488078FF2824D12D
:101610004FF4007101A800F044F9274880788DF854
:10162000040025480279811D0DF1050000F0D2F873
:1016300021480079401CC1B201A8FFF779FF1E497B
:10164000487108464179007901AA11541A48007975
:10165000811C01A8FFF797FD12E017488078012848
:101660000ED100208090144880788DF80002124836
:1016700040798DF80102022180A8FFF784FD00BFA8
:1016800000200D4908700DF5017D00BD10B5FFF774
:101690008EFDFFF7D3FE40F20621074800F0DFF889
:1016A0000648FFF74DFD10BD10B5FFF784FDFFF7AD
:1016B0007DFFFFF7A2FF10BD380200204B15000888
:1016C00010B56FF00400FEF7D8FE2E4800682E49D2
:1016D000B0FBF1F02D4908700846007800EB40019E
:1016E000C1EBC0104FF6FF7101EAC0002849088025
:1016F00010BD0146254A12784A434FF0E0235A6153
:1017000000229A611A46126942F001021A6100BF72
:101710004FF0E022106900F001021AB100F48032AB
:10172000002AF5D04FF0E022126922F001024FF0BA
:10173000E0231A6100229A6170470146144A128818
:101740004A434FF0E0235A6100229A611A46126917
:1017500042F001021A6100BF4FF0E022106900F070
:1017600001021AB100F48032002AF5D04FF0E022D5
:10177000126922F001024FF0E0231A6100229A61FF
:10178000704700000000002000127A0028000020AE
:101790002A0000200948804709480047FEE7FEE785
:1017A000FEE7FEE7FEE7FEE7FEE7FEE7FEE7FEE711
:1017B00004480549054A064B70470000DB02000853
:1017C00031010008A0040020A00A0020A00600208B
:1017D000A0060020032A40F2308010F0030C00F035
:1017E000158011F8013BBCF1020F624498BF11F85B
:1017F00001CB00F8013B38BF11F8013BA2F1040214
:1018000098BF00F801CB38BF00F8013B11F003038B
:1018100000F07180083AC0F0088051F8043B083AA3
:1018200051F804CBA0E80810F5E7121D5CBF51F891
:10183000043B40F8043BAFF30080D20724BF11F80B
:10184000013B11F801CB48BF11F8012B24BF00F870
:10185000013B00F801CB48BF00F8012B70474FF067
:1018600000020429C0F0128010F0030C00F01B806D
:10187000CCF1040CBCF1020F18BF00F8012BA8BF7B
:1018800020F8022BA1EB0C0100F00DB85FEAC17C3F
:1018900024BF00F8012B00F8012B48BF00F8012BF2
:1018A00070474FF0000200B5134694469646203923
:1018B00022BFA0E80C50A0E80C50B1F12001BFF409
:1018C000F7AF090728BFA0E80C5048BF0CC05DF86F
:1018D00004EB890028BF40F8042B08BF704748BFBD
:1018E00020F8022B11F0804F18BF00F8012B704731
:1018F00070477047704710B5203AC0F00B80B1E8D0
:101900001850203AA0E81850B1E81850A0E8185034
:10191000BFF4F5AF5FEA027C24BFB1E81850A0E83D
:10192000185044BF18C918C0BDE810405FEA827C57
:1019300024BF51F8043B40F8043B08BF7047D2076E
:1019400028BF31F8023B48BF11F8012B28BF20F80F
:10195000023B48BF00F8012B7047754600F02CF899
:10196000AE4605006946534620F00700854618B08C
:1019700020B5FFF71DFFBDE820404FF000064FF0F7
:1019800000074FF000084FF0000B21F00701AC46B4
:10199000ACE8C009ACE8C009ACE8C009ACE8C009D3
:1019A0008D46704710B50446AFF300802046BDE871
:1019B0001040FEF704BC00000048704740040020BF
:1019C00001491820ABBEFEE7260002007047000068
:1019D000F0190008000000202C0000006C01000835
:1019E0001C1A00082C000020740A0000880100085E
:1019F00000A24A04000000000000000001020304ED
:101A000006070809000000000102030401020304A4
:0C1A100006070809020406080000000098
:0400000508000131BD
:00000001FF
